:100000000C94A90D0C94C60D0C94C60D0C94C60D41
:100010000C94C60D0C94C60D0C94C60D0C94C60D14
:100020000C94C60D0C94C60D0C94C60D0C94C60D04
:100030000C94C60D0C94C60D0C94C60D0C94C60DF4
:100040000C94C60D0C94C60D0C94C60D0C94C60DE4
:100050000C94C60D0C94C60D0C94C60D0C94C60DD4
:100060000C94C60D0C94C60D0000002B000B0A006A
:10007000001A1B2A00000000000000000102040812
:100080001020408001020408102001020408102002
:100090000000000000000000000000000000000060
:1000A0000000000000000000000000000000000050
:1000B0000000000000000000000000000000000040
:1000C0000000000000000000000000000000000030
:1000D000000000000000000000000000000003809D
:1000E0000003800003800003800003800003800081
:1000F0000380000380000380000100000100000075
:1001000000000000000380000380000000000000E9
:1001100000000000000000000000000000000000DF
:100120000000000000000000000E70000E70000EC5
:1001300070000420000420000420000420000000BF
:1001400000000000000000000000000000000000AF
:10015000000000000000000000000000000000009F
:100160000000000000000000000000000000066029
:10017000000660000660000660000660003FF800B0
:100180003FF8000660000CC0003FF8003FF8000C8C
:10019000C0000CC0000CC0000CC0000CC00000006F
:1001A000000000000000000000000000000000004F
:1001B00000000001800001800007B0000FF000186F
:1001C00070001870001C00000F800007E00000F0B5
:1001D000001830001C30001C70001FE0001BC00025
:1001E000018000018000018000018000000000000B
:1001F0000000000000000000000000000000078078
:10020000000FC0001CE0001860001860001CE00037
:100210000FF80007E0001FF000073800061800067E
:10022000180007380003F00001E0000000000000A3
:1002300000000000000000000000000000000000BE
:1002400000000000000000000000000003F00007B4
:10025000F0000C60000C00000C000006000007001D
:10026000000F9C001DFC0018F0001870000FFC002F
:1002700007DC00000000000000000000000000009B
:10028000000000000000000000000000000000006E
:1002900000038000038000038000010000010000D3
:1002A000010000010000000000000000000000004C
:1002B000000000000000000000000000000000003E
:1002C000000000000000000000000000000000002E
:1002D000000000000000001800003800007000005E
:1002E000F00000E00000E00001C00001C00001C01B
:1002F0000001C00001C00001C00000E00000E000FB
:1003000000700000700000380000180000000000BD
:1003100000000000000000000000000000001800C5
:10032000001C00000E00000E000007000007000087
:10033000038000038000038000038000038000032B
:1003400080000700000700000F00000E00001C00E6
:100350000018000000000000000000000000000085
:100360000000000000000180000180000180001DED
:10037000B8001FF80007E00003C00003C0000660DB
:100380000006600000000000000000000000000007
:10039000000000000000000000000000000000005D
:1003A000000000000000000000000000000000004D
:1003B0000000000001800001800001800001800039
:1003C0000180003FFC003FFC000180000180000133
:1003D000800001800001800000000000000000009B
:1003E000000000000000000000000000000000000D
:1003F00000000000000000000000000000000000FD
:1004000000000000000000000000000000000000EC
:100410000000000000000000000000E00000C0003C
:1004200001C0000180000180000300000300000003
:1004300000000000000000000000000000000000BC
:1004400000000000000000000000000000000000AC
:100450000000001FF8001FF800000000000000006E
:10046000000000000000000000000000000000008C
:10047000000000000000000000000000000000007C
:10048000000000000000000000000000000000006C
:10049000000000000000000000000000000000005C
:1004A0000000000000000000000003C00003C000C6
:1004B00003C0000000000000000000000000000079
:1004C00000000000000000000018000018000038C4
:1004D0000000300000700000600000600000C000FC
:1004E00000C000018000018000030000030000063E
:1004F00000000600000E00000C00001C00001800A8
:1005000000180000000000000000000000000000D3
:1005100000000000000003C00007E0000C30000CE9
:1005200030001818001818001818001818001818AB
:10053000001818001818000C30000C300007E000FC
:1005400003C00000000000000000000000000000E8
:10055000000000000000000000000000000000801B
:10056000000780001F80001D8000018000018000C6
:1005700001800001800001800001800001800001F5
:1005800080000180001FF8001FF80000000000003C
:10059000000000000000000000000000000000005B
:1005A00000000000000007C0001FF00038300030DD
:1005B000180030180000180000300000600001C072
:1005C000000380000600000C00001800003FF80047
:1005D0003FF80000000000000000000000000000E4
:1005E000000000000000000000000000000003C048
:1005F000000FE0000C7000003000003000006000D0
:1006000003C00003E00000700000180000180000A4
:1006100018001838001FF0000FC000000000000094
:1006200000000000000000000000000000000000CA
:1006300000000000000000E00001E00001E0000315
:1006400060000660000660000C60000C600018602E
:10065000003060003FF8003FF80000600003F80041
:1006600003F800000000000000000000000000008F
:1006700000000000000000000000000000001FF06B
:10068000001FF0001800001800001800001BC00038
:100690001FF0001C300000180000180000180000B7
:1006A00018003030003FF0000FC0000000000000D4
:1006B000000000000000000000000000000000003A
:1006C00000000000000000F80003F8000700000E22
:1006D00000000C00001800001BC0001FF0001C30C0
:1006E000001818001818001818000C38000FF00037
:1006F00003E0000000000000000000000000000017
:1007000000000000000000000000000000001FF8D2
:10071000001FF800181800183800003000003000E2
:1007200000700000600000600000E00000C00000F9
:10073000C00001C000018000018000000000000036
:1007400000000000000000000000000000000000A9
:1007500000000000000007E0000FF0001C38001847
:1007600018001818000C300007E00007E0000C30FB
:10077000001818001818001818001C38000FF00096
:1007800007E0000000000000000000000000000082
:10079000000000000000000000000000000007C092
:1007A000000FF0001C30001818001818001818006E
:1007B0000C38000FF80003D80000180000300000CB
:1007C000700000E0001FC0001F00000000000000DB
:1007D0000000000000000000000000000000000019
:1007E0000000000000000000000000000000000009
:1007F000000003C00003C00003C0000000000000B0
:100800000000000000000000000003C00003C00062
:1008100003C0000000000000000000000000000015
:1008200000000000000000000000000000000000C8
:100830000000000000000000000000F00000F000D8
:1008400000F00000000000000000000000000000B8
:10085000E00001C0000180000180000300000200F0
:100860000000000000000000000000000000000088
:10087000000000000000000000000000001C00005C
:100880003C0000F00003C0000F00003C0000F0003E
:10089000003C00000F000003C00000F000003C001E
:1008A000001C00000000000000000000000000002C
:1008B0000000000000000000000000000000000038
:1008C000000000000000000000000000007FFC00AD
:1008D0007FFC000000000000007FFC007FFC0000A7
:1008E0000000000000000000000000000000000008
:1008F00000000000000000000000000000000000F8
:1009000000000000000000000000000070000078FF
:1009100000001E000007800001E000007800001EBB
:100920000000780001E0000780001E000078000051
:100930007000000000000000000000000000000047
:1009400000000000000000000000000000000000A7
:100950000007C0000FE000187000183000183000C9
:1009600000700000E00003C00003800003000000EE
:100970000000000000070000070000000000000069
:100980000000000000000000000000000000000067
:1009900000000000000003E00007F0000E38000C2B
:1009A000180018780018F80019D80019980019983C
:1009B0000019980018F8001878001800000C0000C2
:1009C0000E180007F80003E000000000000000001F
:1009D0000000000000000000000000000000000017
:1009E000001F80001FC00001C00003600003600002
:1009F0000630000630000C30000FF8001FF8001819
:100A00000C00300C00FC7F00FC7F000000000000A8
:100A100000000000000000000000000000000000D6
:100A20000000000000000000007FE0007FF00018E0
:100A300038001818001818001838001FF0001FF8A8
:100A400000181C00180C00180C00180C007FF8008F
:100A50007FF0000000000000000000000000000027
:100A60000000000000000000000000000000000086
:100A70000003EC000FFC001C1C00180C00300C00E4
:100A8000300000300000300000300000300000185E
:100A90000C001C1C000FF80003F000000000000018
:100AA0000000000000000000000000000000000046
:100AB0000000000000000000007FC0007FF0001870
:100AC0003800181800180C00180C00180C00180C2E
:100AD00000180C00180C001818001838007FF000DF
:100AE0007FE00000000000000000000000000000A7
:100AF00000000000000000000000000000000000F6
:100B0000007FF8007FF800181800181800199800E6
:100B10001980001F80001F8000198000199800189C
:100B200018001818007FF8007FF80000000000008F
:100B300000000000000000000000000000000000B5
:100B40000000000000000000003FFC003FFC000C23
:100B50000C000C0C000CCC000CC0000FC0000FC02F
:100B6000000CC0000CC0000C00000C00003FC000D6
:100B70003FC0000000000000000000000000000076
:100B80000000000000000000000000000000000065
:100B90000003EC000FFC001C1C00180C00300C00C3
:100BA00030000030000030FE0030FE00300C003815
:100BB0000C001C1C000FFC0003F0000000000000F3
:100BC0000000000000000000000000000000000025
:100BD0000000000000000000007E7E007E7E001805
:100BE00018001818001818001818001FF8001FF82F
:100BF000001818001818001818001818007E7E0039
:100C00007E7E0000000000000000000000000000E8
:100C100000000000000000000000000000000000D4
:100C2000001FF8001FF80001800001800001800013
:100C3000018000018000018000018000018000012E
:100C400080000180001FF8001FF800000000000075
:100C50000000000000000000000000000000000094
:100C600000000000000000000007FE0007FE00007A
:100C70003000003000003000003000003000303024
:100C8000003030003030003030003060003FE00095
:100C90000F800000000000000000000000000000C5
:100CA0000000000000000000000000000000000044
:100CB000007F3E007F3E0018300018600018C00022
:100CC0001980001B80001FC0001CE0001870001875
:100CD00030001838007F1F007F1F00000000000058
:100CE0000000000000000000000000000000000004
:100CF0000000000000000000007F80007F80000CEA
:100D000000000C00000C00000C00000C00000C00A7
:100D1000000C0C000C0C000C0C000C0C007FFC00F8
:100D20007FFC000000000000000000000000000048
:100D300000000000000000000000000000000000B3
:100D400000F00F00F81F00381C003C3C003C3C0049
:100D5000366C00366C0033CC0033CC00318C003064
:100D60000C00300C00FE7F00FE7F00000000000041
:100D70000000000000000000000000000000000073
:100D800000000000000000000078FE0078FE001C5B
:100D900018001E18001F18001B18001B980019D8F7
:100DA0000018D80018F8001878001838007F1800CC
:100DB0007F1800000000000000000000000000009C
:100DC0000000000000000000000000000000000023
:100DD0000003C0000FF0001C3800181800381C0079
:100DE000300C00300C00300C00300C00381C0018A7
:100DF00018001C38000FF00003C0000000000000C5
:100E000000000000000000000000000000000000E2
:100E10000000000000000000003FF0003FF8000C60
:100E20001C000C0C000C0C000C0C000C18000FF833
:100E3000000FE0000C00000C00000C00003FC000A0
:100E40003FC00000000000000000000000000000A3
:100E50000000000000000000000000000000000092
:100E60000003C0000FF0001C3800181800381C00E8
:100E7000300C00300C00300C00300C00381C001816
:100E800018001C38000FF00007C00007CC000FFC52
:100E9000000C38000000000000000000000000000E
:100EA0000000000000000000007FE0007FF000185C
:100EB00038001818001818001838001FF0001FC05C
:100EC0000018E0001870001830001838007F1E006D
:100ED0007F0E000000000000000000000000000085
:100EE0000000000000000000000000000000000002
:100EF0000007D8000FF8001C380018180018180058
:100F00001E00000FC00003F0000078001818001841
:100F100018001C38001FF0001BE00000000000005B
:100F200000000000000000000000000000000000C1
:100F30000000000000000000003FFC003FFC00310A
:100F40008C00318C00318C00318C000180000180DC
:100F5000000180000180000180000180000FF0008E
:100F60000FF0000000000000000000000000000082
:100F70000000000000000000000000000000000071
:100F8000007E7E007E7E00181800181800181800D9
:100F90001818001818001818001818001818001849
:100FA00018000C30000FF00003C00000000000002B
:100FB0000000000000000000000000000000000031
:100FC0000000000000000000007F7F007F7F00180D
:100FD0000C000C18000C18000C180006300006302D
:100FE0000003600003600003600001C00001C00056
:100FF0000080000000000000000000000000000071
:1010000000000000000000000000000000000000E0
:1010100000FE3F80FE3F8030060030060030860034
:1010200019CC0019CC001B6C001B6C001E7C000E40
:1010300038000E38000C18000C18000000000000EA
:1010400000000000000000000000000000000000A0
:101050000000000000000000007E7E007E7E001880
:1010600018000C300006600003C000018000018001
:101070000003C0000660000C30001818007E7E00DF
:101080007E7E000000000000000000000000000064
:101090000000000000000000000000000000000050
:1010A000007C7E007C7E001818000C30000660007A
:1010B00006600003C0000180000180000180000183
:1010C00080000180000FF0000FF000000000000021
:1010D0000000000000000000000000000000000010
:1010E0000000000000000000001FF8001FF80018BA
:1010F000180018300018600018C0000180000300BC
:10110000000618000C18001818003018003FF800EE
:101110003FF8000000000000000000000000000098
:10112000000000000000000000000000000001F0CE
:101130000001F000018000018000018000018000BA
:101140000180000180000180000180000180000119
:10115000800001800001800001800001800001F01A
:101160000001F0000000000000000000000000008E
:101170001800001800001C00000C00000E00000603
:101180000000060000030000030000018000018051
:101190000000C00000C0000060000060000070009F
:1011A00000300000380000180000180000000000A7
:1011B00000000000000000000000000000000F80A0
:1011C000000F80000180000180000180000180008C
:1011D0000180000180000180000180000180000189
:1011E00080000180000180000180000180000F80EC
:1011F000000F800000000000000000000000000060
:1012000000000000800001C00003E000077000063D
:1012100030000C1800180C00100400000000000042
:1012200000000000000000000000000000000000BE
:1012300000000000000000000000000000000000AE
:10124000000000000000000000000000000000009E
:10125000000000000000000000000000000000008E
:10126000000000000000000000000000000000007E
:10127000000000000000000000000000000000006E
:1012800000000000000000000000FFFF00FFFF0062
:1012900000000003000003800000E0000060000088
:1012A000000000000000000000000000000000003E
:1012B000000000000000000000000000000000002E
:1012C000000000000000000000000000000000001E
:1012D000000000000000000000000000000000000E
:1012E000000000000000000000000FC0001FE00030
:1012F00000300000300007F0001FF00038300030F0
:1013000030003070001FFC000FBC00000000000027
:1013100000000000000000000000000000000000CD
:10132000000000000000780000780000180000189D
:1013300000001BE0001FF8001C1800180C00180C1F
:1013400000180C00180C00180C001C18007FF80086
:101350007BE0000000000000000000000000000032
:10136000000000000000000000000000000000007D
:101370000000000000000000000003EC000FFC0073
:101380001C1C00380C00300C00300000300000380D
:101390000C001C1C000FF80003F00000000000000F
:1013A000000000000000000000000000000000003D
:1013B0000000000000000078000078000018000025
:1013C000180007D8001FF80018380030180030182F
:1013D000003018003018003018001838001FFE00C8
:1013E00007DE000000000000000000000000000018
:1013F00000000000000000000000000000000000ED
:101400000000000000000000000007E0001FF800DE
:10141000181800300C003FFC003FFC00300000308A
:101420000000180C001FFC0007F000000000000086
:1014300000000000000000000000000000000000AC
:1014400000000000000001FC0003FC000600000694
:1014500000003FF8003FF80006000006000006000C
:10146000000600000600000600000600003FF00035
:101470003FF000000000000000000000000000003D
:10148000000000000000000000000000000000005C
:101490000000000000000000000007DE001FFE004A
:1014A000183800301800301800301800301800309C
:1014B00018001838001FF80007D80000180000189E
:1014C000000038000FF0000FC00000000000000016
:1014D00000000000000078000078000018000018EC
:1014E00000001BE0001FF0001C380018180018183E
:1014F000001818001818001818001818007E7E0030
:101500007E7E0000000000000000000000000000DF
:10151000000000000000000000000000000001804A
:10152000000180000000000000001F80001F8000FC
:101530000180000180000180000180000180000125
:1015400080000180003FFC003FFC00000000000024
:10155000000000000000000000000000000000008B
:1015600000000000000000C00000C00000000000FB
:1015700000001FF0001FF0000030000030000030BD
:10158000000030000030000030000030000030006B
:101590000030000030000030000070001FE0001F2D
:1015A00080000000000000000000000000003C007F
:1015B000003C00000C00000C00000CF8000CF800CF
:1015C0000CC0000D80000F80000F00000F80000D88
:1015D000C0000CE0003C7C003C7C000000000000EF
:1015E00000000000000000000000000000000000FB
:1015F0000000000000001F80001F8000018000012B
:1016000080000180000180000180000180000180D5
:10161000000180000180000180000180003FFC008B
:101620003FFC00000000000000000000000000007F
:1016300000000000000000000000000000000000AA
:1016400000000000000000000000F77800FFFC0030
:1016500039CC00318C00318C00318C00318C003160
:101660008C00318C00FDEF00FDEF00000000000059
:10167000000000000000000000000000000000006A
:10168000000000000000000000000000000000005A
:1016900000007BE0007FF0001C38001818001818CC
:1016A000001818001818001818001818007E7E007E
:1016B0007E7E00000000000000000000000000002E
:1016C000000000000000000000000000000000001A
:1016D0000000000000000000000003C0000FF00048
:1016E0001C3800381C00300C00300C00300C003866
:1016F0001C001C38000FF00003C0000000000000B8
:1017000000000000000000000000000000000000D9
:1017100000000000000000000000000000000000C9
:1017200000007BE0007FF8001C1800180C00180C6B
:1017300000180C00180C00180C001C18001FF800F2
:101740001BE0001800001800001800007F00007F58
:101750000000000000000000000000000000000089
:101760000000000000000000000007DE001FFE0077
:1017700018380030180030180030180030180030C9
:1017800018001838001FF80007D8000018000018CB
:101790000000180000FE0000FE0000000000000035
:1017A0000000000000000000000000000000000039
:1017B00000003E78003EFC0007CC00070000060059
:1017C000000600000600000600000600003FF000D2
:1017D0003FF00000000000000000000000000000DA
:1017E00000000000000000000000000000000000F9
:1017F0000000000000000000000007F8000FF800E3
:101800001818001818001F80000FF00000F80018CA
:1018100018001838001FF0001FE000000000000052
:1018200000000000000000000000000000000000B8
:101830000000000000000C00000C00000C00000C78
:1018400000003FF0003FF0000C00000C00000C0016
:10185000000C00000C00000C00000C1C0007FC0039
:1018600003F0000000000000000000000000000085
:101870000000000000000000000000000000000068
:101880000000000000000000000078780078780078
:101890001818001818001818001818001818001840
:1018A00018001838000FFE0007DE000000000000DE
:1018B0000000000000000000000000000000000028
:1018C0000000000000000000000000000000000018
:1018D00000007C3E007C3E001818001818000C30F8
:1018E000000C300006600006600007E00003C00046
:1018F00003C0000000000000000000000000000025
:1019000000000000000000000000000000000000D7
:1019100000000000000000000000783C00783C005F
:101920003118003398003398001AB0001EF0001EE2
:10193000F0001C60000C60000C6000000000000063
:101940000000000000000000000000000000000097
:101950000000000000000000000000000000000087
:1019600000003E7C003E7C000C300006600003C09E
:101970000001800003C0000660000C30003E7C00C7
:101980003E7C00000000000000000000000000009D
:101990000000000000000000000000000000000047
:1019A000000000000000000000007E1F007E1F00FD
:1019B000180C000C18000C1800063000063000034C
:1019C000600003E00001C00000C000018000018051
:1019D000000300003FC0003FC00000000000000006
:1019E00000000000000000000000000000000000F7
:1019F00000001FF8001FF80018300018600000C039
:101A0000000180000300000618000C18001FF800F9
:101A10001FF80000000000000000000000000000AF
:101A2000000000000000000000000000000000E0D6
:101A30000001E000018000018000018000018000C1
:101A40000180000180000380000700000380000186
:101A5000800001800001800001800001800001E021
:101A60000000E00000000000000000000000000096
:101A700000000000000001800001800001800001E2
:101A80008000018000018000018000018000018051
:101A900000018000018000018000018000018000C1
:101AA0000180000180000180000180000000000032
:101AB000000000000000000000000000000007001F
:101AC000000780000180000180000180000180008B
:101AD00001800001800001C00000E00001C00001A1
:101AE00080000180000180000180000180000780EB
:101AF00000070000000000000000000000000000DF
:101B000000000000000000000000000000000000D5
:101B100000000000000000000E00001F18003BB88D
:101B20000031F00000E000000000000000000000B4
:101B300000000000000000000000000000000000A5
:101B4000000000000000000000000000240027004A
:101B50002A0011241FBECFEFD8E0DEBFCDBF11E0B9
:101B6000A0E0B1E0E0E5FDE202C005900D92AE3FDD
:101B7000B107D9F722E0AEEFB1E001C01D92A83164
:101B8000B207E1F70E944B160C94A6160C940000C5
:101B900084B1876084B98AB180688AB96CE889E0C9
:101BA0000E94470E08950E94C80D1092C500109221
:101BB000C40088E18093C10086E08093C2008CB5A8
:101BC0008C608CBD8CB58F7D8CBD8CB58C7F8CBDB5
:101BD0008DB581608DBD0E944E1608958A31A9F0A1
:101BE00028F48A3051F08B3061F008958A32C9F0C0
:101BF0008B32E9F08B3101F50EC084B58F7784BD4F
:101C0000089584B58F7D84BD0895E0E8F0E080817B
:101C10008F7780830895E0E8F0E080818F7D808376
:101C20000895E0EBF0E080818F7780830895E0EB0A
:101C3000F0E080818F7D80830895883010F48BB12F
:101C4000089598EF980F963010F485B108958E504E
:101C5000863010F488B1089580E00895CF93282F3E
:101C600030E0F901E859FF4FC491F901E458FF4F02
:101C700024910E941D0E882341F0CC2319F08C2F53
:101C80000E94EE0D8FB7F8948FBFCF910895611128
:101C900003C00E942E0E08956F3F21F461E00E9460
:101CA0002E0E0895893059F4E0E8F0E080818068D4
:101CB000808370E0709389006093880008956623A4
:101CC00024F060E00E942E0E089561E00E942E0E26
:101CD0000895EEEFF1E097838683718760873387FD
:101CE0002287918B808B738B628B558744871786F5
:101CF00016864115510519F0443B510539F4EEEFB4
:101D0000F1E093838283758364830895EEEFF1E0BD
:101D100073836283958384830895209100023091B8
:101D200001022817390708F485C02091020230917A
:101D300003022617370708F47DC020910A0230916C
:101D40000B022A35310559F018F4232B71F108954F
:101D5000243B310571F02E303140E9F00895209197
:101D6000040230910502261B370BBC01C901019703
:101D70001CC0EEEFF1E026813781D901A81BB90B19
:101D8000CD01019720853185F901E61BF70BBF01D5
:101D9000615071090AC02091060230910702281B88
:101DA000390BCB01B9016150710920910C023091BE
:101DB0000D022130310541F068F12230310571F01A
:101DC00023303105B1F008952091040230910502CD
:101DD000D901A81BB90BCD0101971CC020910602A7
:101DE00030910702F901E61BF70BBF016150710941
:101DF00011C0EEEFF1E026813781D901A81BB90BA4
:101E0000CD01019720853185F901E61BF70BBF0154
:101E10006150710920910402309105022817390799
:101E200048F020910602309107022617370710F07C
:101E30000E94A2150895EF92FF920F931F93CF93E4
:101E4000DF938C01EEEFF1E02289338940895189DB
:101E500060E070E080E090E00E940715E12CF12C3A
:101E600011C0C8010E941614219602C0C0E0D0E043
:101E700080910E0290910F02C817D90790F38FEF4F
:101E8000E81AF80A8091100290911102E816F906FA
:101E900068F3DF91CF911F910F91FF90EF9008951C
:101EA0007F928F929F92AF92BF92CF92DF92EF92EA
:101EB000FF920F931F93CF93DF937C014B016A0135
:101EC000722E80910002909101028E159F0538F0CC
:101ED00080910202909103028617970728F486E00A
:101EE00091E00E94761645C00130F1F000E010E06C
:101EF0003BC0B501680D791D272D30E0621B730BC7
:101F0000A601C8018E0D9F1D821B930B0E948D0E92
:101F10008FEFA81AB80A02C0A12CB12CAC16BD06CE
:101F200044F30F5F1F4F02C000E010E0C72DD0E068
:101F3000CC0FDD1F21970C171D0774F31AC0BE01CB
:101F4000680D791D61507109A601C8018E0D9F1D94
:101F500001970E948D0E219602C0C0E0D0E0CA1504
:101F6000DB056CF30F5F1F4FA72CB12C0A151B0567
:101F7000A4F3DF91CF911F910F91FF90EF90DF902D
:101F8000CF90BF90AF909F908F907F9008952F92A9
:101F90003F924F925F926F927F928F929F92AF92F9
:101FA000BF92CF92DF92EF92FF920F931F93CF9346
:101FB000DF93CDB7DEB728970FB6F894DEBF0FBE1C
:101FC000CDBF98878F835B015C834B833E832D83DA
:101FD0001A830983DE2C80910002909101022F81E7
:101FE000388582179307B8F080910202909103021E
:101FF0008617970780F08091000290910102841764
:10200000950748F080910202909103022D813E8154
:102010008217930728F486E491E00E94761680C028
:102020008B819C812F813885821B930B12F03C01A0
:1020300006C06F8078848B819C81681A790A8D81B3
:102040009E818A199B091816190614F04C0105C0C7
:1020500045012D813E81821A930A8F8198852B81BB
:102060003C818217930720F444244394512C03C0ED
:1020700044244A94542C8D819E81A816B90620F4DC
:1020800022242394312C03C022242A94322C73015D
:10209000E80CF91C10E01F5F31E0C31215C08BEA99
:1020A000189F812D11248695982F990F890F181349
:1020B0000BC001E02D2D4FEF5FEFB5018F819885AB
:1020C0000E94500F10E009C001E02D2D49815A8176
:1020D000B5018F8198850E94500FC701880F991F05
:1020E000881599056CF08F8198852B813C8182172A
:1020F0009307B1F0E80CF91C840D951D98878F8328
:10210000C701880F991F681679062CF28D819E8170
:10211000A816B90629F0E60CF71CA20CB31CBBCF1D
:1021200028960FB6F894DEBF0FBECDBFDF91CF91DA
:102130001F910F91FF90EF90DF90CF90BF90AF90E5
:102140009F908F907F906F905F904F903F902F90D7
:1021500008954F925F926F927F928F929F92AF926B
:10216000BF92CF92EF92FF920F931F93CF93DF9383
:10217000EC012B015A0149013801FE2C809100022B
:10218000909101028C179D07A8F080910202909116
:1021900003028617970770F0809100029091010268
:1021A0008417950738F080910202909103028217FC
:1021B000930728F485E891E00E9476162AC0C110A2
:1021C0000DC010C0C12CEF2C83019201A501B201FA
:1021D000CE010E94C70F8FEF481A580A48145904BD
:1021E00088F317C0C12C9B01CE010E94C70F940138
:1021F000AE01B201CE010E94C70F9201A501B40148
:10220000C5010E94C70F9401AE01B401C5010E942F
:10221000C70FDF91CF911F910F91FF90EF90CF905B
:10222000BF90AF909F908F907F906F905F904F90F6
:1022300008952F923F924F925F926F927F928F926A
:102240009F92AF92BF92CF92DF92EF92FF920F9345
:10225000CF93DF93CDB7DEB72A970FB6F894DEBFE2
:102260000FBECDBF6C015B012901902E8091000251
:10227000909101028C159D0538F080910202909199
:1022800003026817790728F085EB91E00E94761623
:1022900017C13A01440F551F83E090E01C01241A36
:1022A000350A61E0E61609F487C01A86198602C16C
:1022B00089849A848A0C9B1C01E021E0A201B4016C
:1022C000C6018E0D9F1D9A8389830E94500F21E0C5
:1022D000A201B401F601EE19FF09FC83EB83CF01E3
:1022E0000E94500F460169857A85861A970A21E077
:1022F000A201C5018E0D9F1D98878F83BC01C4016B
:102300000E94500F21E0A201F501EE19FF09FE83A2
:10231000ED83BF01C4010E94500F450169857A8594
:10232000861A970A21E0A201B4018B819C810E9448
:10233000500F21E0A201B40189819A810E94500FBF
:1023400089849A848C0C9D1C21E0A2016D817E8180
:10235000C4010E94500F21E0A2016F817885C40161
:102360000E94500F89859A8501969A87898702C0B5
:10237000FA86E986E985FA856E167F060CF098CF15
:1023800033204CF4C701880F991F880F991F0696B8
:10239000280E391E0DC0C70186199709880F991F8D
:1023A000880F991F0A96280E391EF1E06F1A7108DE
:1023B0006FEFE61AF60A02C0E12CF12C6E147F04CE
:1023C000BCF67EC001E0292DA2017501E60CF71CC8
:1023D000B70189859A858C0D9D1D9A8389830E94FA
:1023E000500F292DA201B701F60189859A85E81BB6
:1023F000F90BFC83EB83CF010E94500F292DA20122
:10240000E985FA85EA0DFB1DF887EF83BF017601A8
:10241000E618F708C7010E94500F292DA201B50147
:1024200089859A85681B790B7E836D83C7010E941D
:10243000500F292DA2017501E618F708B7018B810D
:102440009C810E94500F292DA201B70189819A8198
:102450000E94500F292DA2016D817E817601E60C2C
:10246000F71CC7010E94500F292DA2016F817885AA
:10247000C7010E94500F332054F489859A85880F34
:10248000991F880F991F0696280E391E0EC0898540
:102490009A8586199709880F991F880F991F0A96A0
:1024A000280E391E91E0691A7108E985FA8531967E
:1024B000FA87E98769857A85661677060CF082CFF8
:1024C0002A960FB6F894DEBF0FBECDBFDF91CF9135
:1024D0000F91FF90EF90DF90CF90BF90AF909F90C3
:1024E0008F907F906F905F904F903F902F900895C6
:1024F0004F925F926F927F928F929F92AF92BF9214
:10250000CF92DF92EF92FF920F931F93CF93DF93BF
:10251000E0910002F0910102E817F90708F4ABC05E
:10252000E0910202F0910302E617F70708F4A3C056
:1025300050E040525109F901A481B5814A9FF00150
:102540004B9FF00D5A9FF00D1124D90112964D9119
:102550005C911397DA01B695A795B695A795B695B0
:10256000A795477055274115510511F041E050E0FE
:10257000270169014B013C014A0F5B1FE49FC00129
:10258000E59F900DF49F900D1124F901E080F180FA
:10259000E80EF91EA12CB12C66C00F3FFFEF1F07FC
:1025A000E9F4F70144919E012770332780E890E019
:1025B000BC0102C0759567952A95E2F7842F90E0DB
:1025C00086239723892B81F1A201B501680D791D1E
:1025D000CE01860D971D0E948D0E26C0F7014491F5
:1025E0009E012770332780E890E0BC0102C07595FA
:1025F00067952A95E2F7842F90E086239723892B0D
:1026000051F0A201B501680D791DCE01860D971D0F
:102610000E948D0E09C0A801B501680D791DCE017B
:10262000860D971D0E948D0ECE0187709927079702
:1026300019F47FEFE71AF70A219602C0C0E0D0E054
:10264000D60112968D919C911397C817D90708F45B
:10265000A4CF87709927892B19F0BFEFEB1AFB0ADB
:10266000EFEFAE1ABE0AD60114968D919C91159784
:10267000A816B90618F3DF91CF911F910F91FF9023
:10268000EF90DF90CF90BF90AF909F908F907F9012
:102690006F905F904F9008952F923F924F925F926C
:1026A0006F927F928F929F92AF92BF92CF92DF9262
:1026B000EF92FF920F931F93CF93DF9300D000D040
:1026C000CDB7DEB71C014B013A0169012801FA823E
:1026D000E98280910002909101028215930508F42D
:1026E00048C080910202909103028617970708F470
:1026F00040C05B013C822B8238C0F601828193810D
:102700002B813C81820F931F2091000230910102A6
:102710002817390730F484819581A80EB91E3C82B0
:102720002B82F601848195818A0D9B1D20910202E6
:10273000309103022817390718F454013C822B8288
:10274000E980FA8082019601B5018B819C810E940B
:102750007812FFEF6F1A7F0AF601828193812B8135
:102760003C81280F391F3C832B83F30140814111A9
:10277000C4CF0F900F900F900F90DF91CF911F91CA
:102780000F91FF90EF90DF90CF90BF90AF909F9010
:102790008F907F906F905F904F903F902F90089513
:1027A000CF93C82F60E08AE00E942E0E61E087E0A0
:1027B0000E942E0E8C2F0E946F1661E08AE00E940C
:1027C0002E0ECF910895CF93C82F60E08AE00E942B
:1027D0002E0E60E087E00E942E0E8C2F0E946F1656
:1027E000CF9108952FEF83EC99E0215080409040E5
:1027F000E1F700C0000060E088E00E942E0E2FEF9D
:1028000083EC99E0215080409040E1F700C0000047
:1028100061E088E00E942E0E2FEF83EC99E02150BA
:1028200080409040E1F700C000000895CF93DF930F
:10283000C82FD92F60E08AE00E942E0E61E087E069
:102840000E942E0E8D2F0E946F168C2F0E946F16E5
:1028500061E08AE00E942E0EDF91CF9108950E94E0
:10286000F21386E30E94E31380EA0E94D0138AE306
:102870000E94E31385E00E94D01381E20E94E313DB
:102880008AE20E94E31380E00E94D01381E00E945C
:10289000D01380E00E94D0138FE30E94D0138BE20C
:1028A0000E94E31380E00E94D01380E00E94D013C6
:1028B00080E00E94D0138FEE0E94D01382EB0E9422
:1028C000E3138CE00E94D0138CE00E94D01380E0D0
:1028D0000E94D01383E30E94D01383E30E94D0139D
:1028E00087EB0E94E31385E30E94D0138BEB0E94D9
:1028F000E3138FE10E94D01380EC0E94E3138CE27B
:102900000E94D01382EC0E94E31381E00E94D01356
:1029100083EC0E94E31382E10E94D01384EC0E94B6
:10292000E31380E20E94D01386EC0E94E3138FE051
:102930000E94D01380ED0E94E31384EA0E94D0131A
:1029400081EA0E94D01380EE0E94E31380ED0E9482
:10295000D01388E00E94D01381E10E94D01388E058
:102960000E94D0138CE00E94D01385E10E94D01306
:1029700089E30E94D01383E30E94D01380E50E9474
:10298000D01386E30E94D01383E10E94D01384E128
:102990000E94D01389E20E94D0138DE20E94D013CE
:1029A00081EE0E94E31380ED0E94D01388E00E9424
:1029B000D01380E10E94D01388E00E94D01386E0FB
:1029C0000E94D01386E00E94D01389E30E94D013A6
:1029D00084E40E94D01381E50E94D0138BE00E9412
:1029E000D01386E10E94D01384E10E94D0138FE2BD
:1029F0000E94D01381E30E94D01381E20E94E3136E
:102A000081E10E94E31389E20E94E3130895EF92AB
:102A1000FF920F931F93CF93DF93E82EF62E8A0138
:102A2000E9018AE20E94E31380E00E94D0138E2D18
:102A30000E94D013C8010197892F0E94D0138FEFF5
:102A4000800F0E94D0138BE20E94E31380E00E946B
:102A5000D0138F2D0E94D013CE010197892F0E9491
:102A6000D0138C2F81500E94D0138CE20E94E3136C
:102A7000DF91CF911F910F91FF90EF9008950F93E9
:102A80001F93CF93DF93182F092FC62FD72F8AE2DA
:102A90000E94E313802F0E94D013812F0E94D01335
:102AA000802F0E94D013812F0E94D0138BE20E94AE
:102AB000E3138D2F0E94D0138C2F0E94D0138D2FE3
:102AC0000E94D0138C2F0E94D0138CE20E94E3133B
:102AD000DF91CF911F910F910895EF92FF920F9385
:102AE0001F93CF93DF93082F192F20EF30E040E49E
:102AF00051E060E070E080E090E00E94071561E046
:102B000087E00E942E0EE12CF12C10C0812F0E9434
:102B10006F16802F0E946F16219602C0C0E0D0E091
:102B2000C03FD10598F38FEFE81AF80A80E4E81661
:102B300081E0F80698F3DF91CF911F910F91FF90FC
:102B4000EF900895CF93DF93EA010E943F15CE01E5
:102B50000E941614DF91CF910895CF92EF92FF92C9
:102B60000F931F930E94D30D0E942F148FEF9FEF9E
:102B70000E946D152FEF3FEF40E050E060EF70E0F6
:102B800080E491E00E94690E8FEF9FEF0E941B0F7F
:102B90000F2EE12CF8EFFF2EF02D00EE1FEF20E0BE
:102BA00031E046EF51E06AE070E08EE190E00E9493
:102BB0004C130F2EEE24EA94FFE7FF2EF02D0FE1C9
:102BC00010E020E031E04AEF51E062E270E08EE197
:102BD00090E00E944C13C12C6894EE24E1F800E0D0
:102BE00018EF2AE330E041EE50E06AE070E08DE754
:102BF00090E00E94A9100FE118EF2AE330E041EEC7
:102C000050E06AE070E08DE790E00E94C70F2AE391
:102C100030E04DE750E06AE070E081EE90E00E9425
:102C2000C70FE12C02E02FE130E049E150E064E61B
:102C300070E086E990E00E94191120E030E049E15F
:102C400050E064E670E084EB90E00E94191120E00F
:102C500038EF49E150E064E670E082ED90E00E94D8
:102C6000191120EE3FEF49E150E06DE770E085EA91
:102C700090E00E94191120EE37E049E150E06DE745
:102C800070E083EC90E00E9419111F910F91FF906A
:102C9000EF90CF9008950E94AD15FFCFCF93CFB79F
:102CA000F894EBB1F0E0EE0FFF1FE85BF44EA59156
:102CB000B4918C9182FD04C061E08AE00E942E0EE6
:102CC00084B1846084B98CB580618CBD8CB580641E
:102CD0008CBD84B1886284B9CFBFCF9108958EBD79
:102CE00000000DB407FEFDCF8EB508950F931F931E
:102CF000CF93DF93E0911402F0911502238121FF1D
:102D00001BC08C01D0E0C0E0F80181918F0160917F
:102D1000140270911502DB011896ED91FC91199740
:102D2000882331F00995892B79F3DFEFCFEFECCFD2
:102D30008AE00995892B19F08FEF9FEF02C08D2F44
:102D40009C2FDF91CF911F910F910895F894FFCFA1
:102D50009000110018004465627567203A205061A8
:102D6000696E745F44726177506F696E7420496E4A
:102D70007075742065786365656473207468652078
:102D80006E6F726D616C20646973706C6179207212
:102D9000616E67650D004465627567203A20506179
:102DA000696E745F447261774C696E6520496E701C
:102DB0007574206578636565647320746865206E3A
:102DC0006F726D616C20646973706C6179207261DF
:102DD0006E67650D004465627567203A20496E7024
:102DE0007574206578636565647320746865206E0A
:102DF0006F726D616C20646973706C6179207261AF
:102E00006E67650D004465627567203A2050616900
:102E10006E745F44726177436972636C6520496EBA
:102E200070757420657863656564732074686520C7
:102E30006E6F726D616C20646973706C6179207261
:0E2E4000616E67650D00313233004142430080
:00000001FF
